{
  "contractName": "TweetStorage",
  "abi": [
    {
      "constant": false,
      "inputs": [
        {
          "name": "_controllerAddr",
          "type": "address"
        }
      ],
      "name": "setControllerAddr",
      "outputs": [],
      "payable": false,
      "stateMutability": "nonpayable",
      "type": "function"
    },
    {
      "constant": true,
      "inputs": [],
      "name": "ownerAddr",
      "outputs": [
        {
          "name": "",
          "type": "address"
        }
      ],
      "payable": false,
      "stateMutability": "view",
      "type": "function"
    },
    {
      "constant": true,
      "inputs": [
        {
          "name": "",
          "type": "uint256"
        }
      ],
      "name": "tweets",
      "outputs": [
        {
          "name": "id",
          "type": "uint256"
        },
        {
          "name": "text",
          "type": "string"
        },
        {
          "name": "userId",
          "type": "uint256"
        },
        {
          "name": "postedAt",
          "type": "uint256"
        }
      ],
      "payable": false,
      "stateMutability": "view",
      "type": "function"
    },
    {
      "constant": true,
      "inputs": [],
      "name": "controllerAddr",
      "outputs": [
        {
          "name": "",
          "type": "address"
        }
      ],
      "payable": false,
      "stateMutability": "view",
      "type": "function"
    },
    {
      "constant": false,
      "inputs": [
        {
          "name": "_newOwner",
          "type": "address"
        }
      ],
      "name": "transferOwnership",
      "outputs": [],
      "payable": false,
      "stateMutability": "nonpayable",
      "type": "function"
    },
    {
      "constant": false,
      "inputs": [
        {
          "name": "_userId",
          "type": "uint256"
        },
        {
          "name": "_text",
          "type": "string"
        }
      ],
      "name": "createTweet",
      "outputs": [
        {
          "name": "",
          "type": "uint256"
        }
      ],
      "payable": false,
      "stateMutability": "nonpayable",
      "type": "function"
    },
    {
      "constant": true,
      "inputs": [
        {
          "name": "_userId",
          "type": "uint256"
        }
      ],
      "name": "getTweetIdsFromUser",
      "outputs": [
        {
          "name": "",
          "type": "uint256[]"
        }
      ],
      "payable": false,
      "stateMutability": "view",
      "type": "function"
    }
  ],
  "bytecode": "0x60806040526000600455336000806101000a81548173ffffffffffffffffffffffffffffffffffffffff021916908373ffffffffffffffffffffffffffffffffffffffff160217905550610879806100586000396000f300608060405260043610610083576000357c0100000000000000000000000000000000000000000000000000000000900463ffffffff168063317aae1b146100885780636981fa7d1461010a5780637cc82f201461014d5780639c675eaa146101d4578063e8d857b01461022b578063ee255c57146102e6578063f2fde38b1461033d575b600080fd5b34801561009457600080fd5b506100b360048036038101908080359060200190929190505050610380565b6040518080602001828103825283818151815260200191508051906020019060200280838360005b838110156100f65780820151818401526020810190506100db565b505050509050019250505060405180910390f35b34801561011657600080fd5b5061014b600480360381019080803573ffffffffffffffffffffffffffffffffffffffff1690602001909291905050506103eb565b005b34801561015957600080fd5b506101be60048036038101908080359060200190929190803590602001908201803590602001908080601f016020809104026020016040519081016040528093929190818152602001838380828437820191505050505050919291929050505061048a565b6040518082815260200191505060405180910390f35b3480156101e057600080fd5b506101e96105bb565b604051808273ffffffffffffffffffffffffffffffffffffffff1673ffffffffffffffffffffffffffffffffffffffff16815260200191505060405180910390f35b34801561023757600080fd5b50610256600480360381019080803590602001909291905050506105e0565b6040518085815260200180602001848152602001838152602001828103825285818151815260200191508051906020019080838360005b838110156102a857808201518184015260208101905061028d565b50505050905090810190601f1680156102d55780820380516001836020036101000a031916815260200191505b509550505050505060405180910390f35b3480156102f257600080fd5b506102fb6106a8565b604051808273ffffffffffffffffffffffffffffffffffffffff1673ffffffffffffffffffffffffffffffffffffffff16815260200191505060405180910390f35b34801561034957600080fd5b5061037e600480360381019080803573ffffffffffffffffffffffffffffffffffffffff1690602001909291905050506106ce565b005b6060600360008381526020019081526020016000208054806020026020016040519081016040528092919081815260200182805480156103df57602002820191906000526020600020905b8154815260200190600101908083116103cb575b50505050509050919050565b6000809054906101000a900473ffffffffffffffffffffffffffffffffffffffff1673ffffffffffffffffffffffffffffffffffffffff163373ffffffffffffffffffffffffffffffffffffffff1614151561044657600080fd5b80600160006101000a81548173ffffffffffffffffffffffffffffffffffffffff021916908373ffffffffffffffffffffffffffffffffffffffff16021790555050565b6000600160009054906101000a900473ffffffffffffffffffffffffffffffffffffffff1673ffffffffffffffffffffffffffffffffffffffff163373ffffffffffffffffffffffffffffffffffffffff161415156104e857600080fd5b6004600081548092919060010191905055506080604051908101604052806004548152602001838152602001848152602001428152506002600060045481526020019081526020016000206000820151816000015560208201518160010190805190602001906105599291906107a8565b506040820151816002015560608201518160030155905050600360008481526020019081526020016000206004549080600181540180825580915050906001820390600052602060002001600090919290919091505550600454905092915050565b6000809054906101000a900473ffffffffffffffffffffffffffffffffffffffff1681565b6002602052806000526040600020600091509050806000015490806001018054600181600116156101000203166002900480601f0160208091040260200160405190810160405280929190818152602001828054600181600116156101000203166002900480156106925780601f1061066757610100808354040283529160200191610692565b820191906000526020600020905b81548152906001019060200180831161067557829003601f168201915b5050505050908060020154908060030154905084565b600160009054906101000a900473ffffffffffffffffffffffffffffffffffffffff1681565b6000809054906101000a900473ffffffffffffffffffffffffffffffffffffffff1673ffffffffffffffffffffffffffffffffffffffff163373ffffffffffffffffffffffffffffffffffffffff1614151561072957600080fd5b600073ffffffffffffffffffffffffffffffffffffffff168173ffffffffffffffffffffffffffffffffffffffff161415151561076557600080fd5b806000806101000a81548173ffffffffffffffffffffffffffffffffffffffff021916908373ffffffffffffffffffffffffffffffffffffffff16021790555050565b828054600181600116156101000203166002900490600052602060002090601f016020900481019282601f106107e957805160ff1916838001178555610817565b82800160010185558215610817579182015b828111156108165782518255916020019190600101906107fb565b5b5090506108249190610828565b5090565b61084a91905b8082111561084657600081600090555060010161082e565b5090565b905600a165627a7a72305820d135d374c4b819db7b4fee0616982f3aec71f960cc3912818b332fcf38c18c7d0029",
  "source": "pragma solidity ^0.4.19;\n\nimport '../helpers/BaseStorage.sol';\n\ncontract TweetStorage is BaseStorage{\n\n  mapping(uint => Tweet) public tweets;\nmapping (uint => uint[]) userTweetIds;\n  struct Tweet {\n    uint id;\n    string text;\n    uint userId;\n    uint postedAt;\n  }\n\n  uint latestTweetId = 0;\n\n  function createTweet(uint _userId, string _text) public onlyController returns(uint) {\n    latestTweetId++;\n\n    tweets[latestTweetId] = Tweet(latestTweetId, _text, _userId, now);\nuserTweetIds[_userId].push(latestTweetId);\n    return latestTweetId;\n  }\nfunction getTweetIdsFromUser(uint _userId) view public returns(uint[]) {\n    return userTweetIds[_userId];\n  }\n}\n",
  "sourcePath": "/home/tsinghua-yincheng/桌面/twitter/contracts/tweets/TweetStorage.sol",
  "compiler": {
    "name": "solc",
    "version": "0.4.23+commit.124ca40d.Emscripten.clang"
  },
  "schemaVersion": "2.0.0",
  "updatedAt": "2018-05-15T01:43:31.536Z"
}